{"contracts/QuestFactory.sol":{"QuestFactory":{"abi":[{"anonymous":false,"inputs":[{"indexed":false,"internalType":"address","name":"tokenAddress","type":"address"},{"indexed":false,"internalType":"address","name":"owner","type":"address"}],"name":"TokenCreated","type":"event"},{"inputs":[{"internalType":"string","name":"kind","type":"string"},{"internalType":"string","name":"content","type":"string"},{"internalType":"bytes32","name":"initCodeHash","type":"bytes32"}],"name":"computeAddress","outputs":[{"internalType":"address","name":"","type":"address"}],"stateMutability":"view","type":"function"},{"inputs":[{"internalType":"string","name":"name","type":"string"},{"internalType":"string","name":"symbol","type":"string"},{"internalType":"uint256","name":"totalSupply","type":"uint256"},{"internalType":"address","name":"owner","type":"address"},{"internalType":"string","name":"kind","type":"string"},{"internalType":"string","name":"content","type":"string"}],"name":"createToken","outputs":[{"internalType":"address","name":"","type":"address"}],"stateMutability":"nonpayable","type":"function"},{"inputs":[],"name":"getTokenCount","outputs":[{"internalType":"uint256","name":"","type":"uint256"}],"stateMutability":"view","type":"function"},{"inputs":[{"internalType":"uint256","name":"","type":"uint256"}],"name":"tokens","outputs":[{"internalType":"address","name":"","type":"address"}],"stateMutability":"view","type":"function"}],"evm":{"bytecode":{"linkReferences":{},"object":"608060405234801561001057600080fd5b50611987806100206000396000f3fe60806040523480156200001157600080fd5b5060043610620000525760003560e01c80634f64b2be146200005757806378a8956714620000865780639421ff511462000098578063a27086ef14620000af575b600080fd5b6200006e620000683660046200033b565b620000c6565b6040516200007d919062000398565b60405180910390f35b6000546040516200007d9190620003af565b6200006e620000a93660046200042f565b620000fe565b6200006e620000c03660046200054d565b6200027b565b60008181548110620000d757600080fd5b60009182526020909120015473ffffffffffffffffffffffffffffffffffffffff16905081565b600080858585856040516020016200011a949392919062000609565b60405160208183030381529060405280519060200120905060008060405180602001620001479062000309565b6020820181038252601f19601f820116604052508e8e8e8e8e8e604051602001620001789695949392919062000656565b60408051601f1981840301815290829052620001989291602001620006f7565b6040516020818303038152906040529050828151602083016000f59150813b620001c157600080fd5b600080546001810182559080527f290decd9548b62a8d60345a988386fc84ba6bc95484008f6362f93160ef3e5630180547fffffffffffffffffffffffff00000000000000000000000000000000000000001673ffffffffffffffffffffffffffffffffffffffff84161790556040517fd5f9bdf12adf29dab0248c349842c3822d53ae2bb4f36352f301630d018c813990620002629084908c9062000738565b60405180910390a1509c9b505050505050505050505050565b6000808686868660405160200162000297949392919062000609565b60408051601f198184030181529082905280516020918201209250620002e6917fff000000000000000000000000000000000000000000000000000000000000009130918591889101620007b6565b60408051601f198184030181529190528051602090910120979650505050505050565b61114b806200080783390190565b805b81146200032557600080fd5b50565b8035620003358162000317565b92915050565b600060208284031215620003525762000352600080fd5b600062000360848462000328565b949350505050565b600073ffffffffffffffffffffffffffffffffffffffff821662000335565b620003928162000368565b82525050565b6020810162000335828462000387565b8062000392565b60208101620003358284620003a8565b60008083601f840112620003d657620003d6600080fd5b50813567ffffffffffffffff811115620003f357620003f3600080fd5b602083019150836001820283011115620004105762000410600080fd5b9250929050565b620003198162000368565b8035620003358162000417565b60008060008060008060008060008060c08b8d031215620004535762000453600080fd5b8a3567ffffffffffffffff8111156200046f576200046f600080fd5b6200047d8d828e01620003bf565b9a509a505060208b013567ffffffffffffffff811115620004a157620004a1600080fd5b620004af8d828e01620003bf565b98509850506040620004c48d828e0162000328565b9650506060620004d78d828e0162000422565b95505060808b013567ffffffffffffffff811115620004f957620004f9600080fd5b620005078d828e01620003bf565b945094505060a08b013567ffffffffffffffff8111156200052b576200052b600080fd5b620005398d828e01620003bf565b92509250509295989b9194979a5092959850565b6000806000806000606086880312156200056a576200056a600080fd5b853567ffffffffffffffff811115620005865762000586600080fd5b6200059488828901620003bf565b9550955050602086013567ffffffffffffffff811115620005b857620005b8600080fd5b620005c688828901620003bf565b93509350506040620005db8882890162000328565b9150509295509295909350565b82818337506000910152565b600062000603838584620005e8565b50500190565b600062000618828688620005f4565b915062000627828486620005f4565b9695505050505050565b818352600060208401935062000649838584620005e8565b5050601f01601f19160190565b608080825281016200066a81888a62000631565b905081810360208301526200068181868862000631565b9050620006926040830185620003a8565b620006a1606083018462000387565b979650505050505050565b60005b83811015620006c9578181015183820152602001620006af565b50506000910152565b6000620006dd825190565b620006ed818560208601620006ac565b9290920192915050565b6000620007058285620006d2565b9150620003608284620006d2565b6000620003358262000368565b6000620003358262000713565b620003928162000720565b604081016200074882856200072d565b62000757602083018462000387565b9392505050565b7fff00000000000000000000000000000000000000000000000000000000000000811662000392565b6000620003358260601b90565b6000620003358262000787565b62000392620007b08262000368565b62000794565b6000620007c482876200075e565b600182019150620007d68286620007a1565b601482019150620007e88285620003a8565b602082019150620007fa8284620003a8565b5060200194935050505056fe60806040523480156200001157600080fd5b506040516200114b3803806200114b83398101604081905262000034916200029c565b8383600362000044838262000435565b50600462000053828262000435565b5050506200006881836200007260201b60201c565b505050506200057a565b6001600160a01b038216620000a45760405162461bcd60e51b81526004016200009b9062000505565b60405180910390fd5b8060026000828254620000b8919062000557565b90915550506001600160a01b038216600081815260208190526040808220805485019055517fddf252ad1be2c89b69c2b068fc378daa952ba7f163c4a11628f55a4df523b3ef906200010c9085906200056d565b60405180910390a35b5050565b505050565b634e487b7160e01b600052604160045260246000fd5b601f19601f83011681018181106001600160401b03821117156200015c576200015c6200011e565b6040525050565b60006200016f60405190565b90506200017d828262000134565b919050565b60006001600160401b038211156200019e576200019e6200011e565b601f19601f83011660200192915050565b60005b83811015620001cc578181015183820152602001620001b2565b50506000910152565b6000620001ec620001e68462000182565b62000163565b905082815260208101848484011115620002095762000209600080fd5b62000216848285620001af565b509392505050565b600082601f830112620002345762000234600080fd5b815162000246848260208601620001d5565b949350505050565b805b81146200025c57600080fd5b50565b80516200026c816200024e565b92915050565b60006001600160a01b0382166200026c565b620002508162000272565b80516200026c8162000284565b60008060008060808587031215620002b757620002b7600080fd5b84516001600160401b03811115620002d257620002d2600080fd5b620002e0878288016200021e565b94505060208501516001600160401b03811115620003015762000301600080fd5b6200030f878288016200021e565b935050604062000322878288016200025f565b925050606062000335878288016200028f565b91505092959194509250565b634e487b7160e01b600052602260045260246000fd5b6002810460018216806200036c57607f821691505b60208210810362000381576200038162000341565b50919050565b60006200026c620003958381565b90565b620003a38362000387565b81546008840282811b60001990911b908116901990911617825550505050565b60006200011981848462000398565b818110156200011557620003e8600082620003c3565b600101620003d2565b601f82111562000119576000818152602090206020601f850104810160208510156200041a5750805b6200042e6020601f860104830182620003d2565b5050505050565b81516001600160401b038111156200045157620004516200011e565b6200045d825462000357565b6200046a828285620003f1565b6020601f831160018114620004a15760008415620004885750858201515b600019600886021c1981166002860217865550620004fd565b600085815260208120601f198616915b82811015620004d35788850151825560209485019460019092019101620004b1565b86831015620004f05784890151600019601f89166008021c191682555b6001600288020188555050505b505050505050565b602080825281016200026c81601f81527f45524332303a206d696e7420746f20746865207a65726f206164647265737300602082015260400190565b634e487b7160e01b600052601160045260246000fd5b808201808211156200026c576200026c62000541565b818152602081016200026c565b610bc1806200058a6000396000f3fe608060405234801561001057600080fd5b50600436106100c95760003560e01c80633950935111610081578063a457c2d71161005b578063a457c2d714610190578063a9059cbb146101a3578063dd62ed3e146101b657600080fd5b8063395093511461013f57806370a082311461015257806395d89b411461018857600080fd5b806318160ddd116100b257806318160ddd1461010c57806323b872dd1461011d578063313ce5671461013057600080fd5b806306fdde03146100ce578063095ea7b3146100ec575b600080fd5b6100d66101fc565b6040516100e3919061069f565b60405180910390f35b6100ff6100fa366004610708565b61028e565b6040516100e3919061074f565b6002545b6040516100e39190610763565b6100ff61012b366004610771565b6102a8565b60126040516100e391906107ca565b6100ff61014d366004610708565b6102cc565b6101106101603660046107d8565b73ffffffffffffffffffffffffffffffffffffffff1660009081526020819052604090205490565b6100d6610318565b6100ff61019e366004610708565b610327565b6100ff6101b1366004610708565b610391565b6101106101c4366004610801565b73ffffffffffffffffffffffffffffffffffffffff918216600090815260016020908152604080832093909416825291909152205490565b60606003805461020b90610863565b80601f016020809104026020016040519081016040528092919081815260200182805461023790610863565b80156102845780601f1061025957610100808354040283529160200191610284565b820191906000526020600020905b81548152906001019060200180831161026757829003601f168201915b5050505050905090565b60003361029c81858561039f565b60019150505b92915050565b6000336102b685828561047a565b6102c1858585610507565b506001949350505050565b33600081815260016020908152604080832073ffffffffffffffffffffffffffffffffffffffff8716845290915281205490919061029c90829086906103139087906108be565b61039f565b60606004805461020b90610863565b33600081815260016020908152604080832073ffffffffffffffffffffffffffffffffffffffff87168452909152812054909190838110156103845760405162461bcd60e51b815260040161037b9061092e565b60405180910390fd5b6102c1828686840361039f565b60003361029c818585610507565b73ffffffffffffffffffffffffffffffffffffffff83166103d25760405162461bcd60e51b815260040161037b90610998565b73ffffffffffffffffffffffffffffffffffffffff82166104055760405162461bcd60e51b815260040161037b90610a02565b73ffffffffffffffffffffffffffffffffffffffff80841660008181526001602090815260408083209487168084529490915290819020849055517f8c5be1e5ebec7d5bd14f71427d1e84f3dd0314c0f7b2291e5b200ac8c7c3b9259061046d908590610763565b60405180910390a3505050565b73ffffffffffffffffffffffffffffffffffffffff8381166000908152600160209081526040808320938616835292905220547fffffffffffffffffffffffffffffffffffffffffffffffffffffffffffffffff811461050157818110156104f45760405162461bcd60e51b815260040161037b90610a12565b610501848484840361039f565b50505050565b73ffffffffffffffffffffffffffffffffffffffff831661053a5760405162461bcd60e51b815260040161037b90610aa7565b73ffffffffffffffffffffffffffffffffffffffff821661056d5760405162461bcd60e51b815260040161037b90610b11565b73ffffffffffffffffffffffffffffffffffffffff8316600090815260208190526040902054818110156105b35760405162461bcd60e51b815260040161037b90610b7b565b73ffffffffffffffffffffffffffffffffffffffff80851660008181526020819052604080822086860390559286168082529083902080548601905591517fddf252ad1be2c89b69c2b068fc378daa952ba7f163c4a11628f55a4df523b3ef9061061e908690610763565b60405180910390a3610501565b60005b8381101561064657818101518382015260200161062e565b50506000910152565b6000610659825190565b80845260208401935061067081856020860161062b565b601f017fffffffffffffffffffffffffffffffffffffffffffffffffffffffffffffffe0169290920192915050565b602080825281016106b0818461064f565b9392505050565b600073ffffffffffffffffffffffffffffffffffffffff82166102a2565b6106de816106b7565b81146106e957600080fd5b50565b80356102a2816106d5565b806106de565b80356102a2816106f7565b6000806040838503121561071e5761071e600080fd5b600061072a85856106ec565b925050602061073b858286016106fd565b9150509250929050565b8015155b82525050565b602081016102a28284610745565b80610749565b602081016102a2828461075d565b60008060006060848603121561078957610789600080fd5b600061079586866106ec565b93505060206107a6868287016106ec565b92505060406107b7868287016106fd565b9150509250925092565b60ff8116610749565b602081016102a282846107c1565b6000602082840312156107ed576107ed600080fd5b60006107f984846106ec565b949350505050565b6000806040838503121561081757610817600080fd5b600061082385856106ec565b925050602061073b858286016106ec565b7f4e487b7100000000000000000000000000000000000000000000000000000000600052602260045260246000fd5b60028104600182168061087757607f821691505b60208210810361088957610889610834565b50919050565b7f4e487b7100000000000000000000000000000000000000000000000000000000600052601160045260246000fd5b808201808211156102a2576102a261088f565b602581526000602082017f45524332303a2064656372656173656420616c6c6f77616e63652062656c6f7781527f207a65726f000000000000000000000000000000000000000000000000000000602082015291505b5060400190565b602080825281016102a2816108d1565b602481526000602082017f45524332303a20617070726f76652066726f6d20746865207a65726f2061646481527f726573730000000000000000000000000000000000000000000000000000000060208201529150610927565b602080825281016102a28161093e565b602281526000602082017f45524332303a20617070726f766520746f20746865207a65726f20616464726581527f737300000000000000000000000000000000000000000000000000000000000060208201529150610927565b602080825281016102a2816109a8565b602080825281016102a281601d81527f45524332303a20696e73756666696369656e7420616c6c6f77616e6365000000602082015260400190565b602581526000602082017f45524332303a207472616e736665722066726f6d20746865207a65726f20616481527f647265737300000000000000000000000000000000000000000000000000000060208201529150610927565b602080825281016102a281610a4d565b602381526000602082017f45524332303a207472616e7366657220746f20746865207a65726f206164647281527f657373000000000000000000000000000000000000000000000000000000000060208201529150610927565b602080825281016102a281610ab7565b602681526000602082017f45524332303a207472616e7366657220616d6f756e742065786365656473206281527f616c616e6365000000000000000000000000000000000000000000000000000060208201529150610927565b602080825281016102a281610b2156fea26469706673582212204add3cf322057a04fd53390bfa75700e4ad72948978ad5649add50cc71ec0c7564736f6c63430008110033a26469706673582212209c4dc5301a9a9c410bf0232e60da190e5815c35092450cc29101b70309075e8764736f6c63430008110033","opcodes":"PUSH1 0x80 PUSH1 0x40 MSTORE CALLVALUE DUP1 ISZERO PUSH2 0x10 JUMPI PUSH1 0x0 DUP1 REVERT JUMPDEST POP PUSH2 0x1987 DUP1 PUSH2 0x20 PUSH1 0x0 CODECOPY PUSH1 0x0 RETURN INVALID PUSH1 0x80 PUSH1 0x40 MSTORE CALLVALUE DUP1 ISZERO PUSH3 0x11 JUMPI PUSH1 0x0 DUP1 REVERT JUMPDEST POP PUSH1 0x4 CALLDATASIZE LT PUSH3 0x52 JUMPI PUSH1 0x0 CALLDATALOAD PUSH1 0xE0 SHR DUP1 PUSH4 0x4F64B2BE EQ PUSH3 0x57 JUMPI DUP1 PUSH4 0x78A89567 EQ PUSH3 0x86 JUMPI DUP1 PUSH4 0x9421FF51 EQ PUSH3 0x98 JUMPI DUP1 PUSH4 0xA27086EF EQ PUSH3 0xAF JUMPI JUMPDEST PUSH1 0x0 DUP1 REVERT JUMPDEST PUSH3 0x6E PUSH3 0x68 CALLDATASIZE PUSH1 0x4 PUSH3 0x33B JUMP JUMPDEST PUSH3 0xC6 JUMP JUMPDEST PUSH1 0x40 MLOAD PUSH3 0x7D SWAP2 SWAP1 PUSH3 0x398 JUMP JUMPDEST PUSH1 0x40 MLOAD DUP1 SWAP2 SUB SWAP1 RETURN JUMPDEST PUSH1 0x0 SLOAD PUSH1 0x40 MLOAD PUSH3 0x7D SWAP2 SWAP1 PUSH3 0x3AF JUMP JUMPDEST PUSH3 0x6E PUSH3 0xA9 CALLDATASIZE PUSH1 0x4 PUSH3 0x42F JUMP JUMPDEST PUSH3 0xFE JUMP JUMPDEST PUSH3 0x6E PUSH3 0xC0 CALLDATASIZE PUSH1 0x4 PUSH3 0x54D JUMP JUMPDEST PUSH3 0x27B JUMP JUMPDEST PUSH1 0x0 DUP2 DUP2 SLOAD DUP2 LT PUSH3 0xD7 JUMPI PUSH1 0x0 DUP1 REVERT JUMPDEST PUSH1 0x0 SWAP2 DUP3 MSTORE PUSH1 0x20 SWAP1 SWAP2 KECCAK256 ADD SLOAD PUSH20 0xFFFFFFFFFFFFFFFFFFFFFFFFFFFFFFFFFFFFFFFF AND SWAP1 POP DUP2 JUMP JUMPDEST PUSH1 0x0 DUP1 DUP6 DUP6 DUP6 DUP6 PUSH1 0x40 MLOAD PUSH1 0x20 ADD PUSH3 0x11A SWAP5 SWAP4 SWAP3 SWAP2 SWAP1 PUSH3 0x609 JUMP JUMPDEST PUSH1 0x40 MLOAD PUSH1 0x20 DUP2 DUP4 SUB SUB DUP2 MSTORE SWAP1 PUSH1 0x40 MSTORE DUP1 MLOAD SWAP1 PUSH1 0x20 ADD KECCAK256 SWAP1 POP PUSH1 0x0 DUP1 PUSH1 0x40 MLOAD DUP1 PUSH1 0x20 ADD PUSH3 0x147 SWAP1 PUSH3 0x309 JUMP JUMPDEST PUSH1 0x20 DUP3 ADD DUP2 SUB DUP3 MSTORE PUSH1 0x1F NOT PUSH1 0x1F DUP3 ADD AND PUSH1 0x40 MSTORE POP DUP15 DUP15 DUP15 DUP15 DUP15 DUP15 PUSH1 0x40 MLOAD PUSH1 0x20 ADD PUSH3 0x178 SWAP7 SWAP6 SWAP5 SWAP4 SWAP3 SWAP2 SWAP1 PUSH3 0x656 JUMP JUMPDEST PUSH1 0x40 DUP1 MLOAD PUSH1 0x1F NOT DUP2 DUP5 SUB ADD DUP2 MSTORE SWAP1 DUP3 SWAP1 MSTORE PUSH3 0x198 SWAP3 SWAP2 PUSH1 0x20 ADD PUSH3 0x6F7 JUMP JUMPDEST PUSH1 0x40 MLOAD PUSH1 0x20 DUP2 DUP4 SUB SUB DUP2 MSTORE SWAP1 PUSH1 0x40 MSTORE SWAP1 POP DUP3 DUP2 MLOAD PUSH1 0x20 DUP4 ADD PUSH1 0x0 CREATE2 SWAP2 POP DUP2 EXTCODESIZE PUSH3 0x1C1 JUMPI PUSH1 0x0 DUP1 REVERT JUMPDEST PUSH1 0x0 DUP1 SLOAD PUSH1 0x1 DUP2 ADD DUP3 SSTORE SWAP1 DUP1 MSTORE PUSH32 0x290DECD9548B62A8D60345A988386FC84BA6BC95484008F6362F93160EF3E563 ADD DUP1 SLOAD PUSH32 0xFFFFFFFFFFFFFFFFFFFFFFFF0000000000000000000000000000000000000000 AND PUSH20 0xFFFFFFFFFFFFFFFFFFFFFFFFFFFFFFFFFFFFFFFF DUP5 AND OR SWAP1 SSTORE PUSH1 0x40 MLOAD PUSH32 0xD5F9BDF12ADF29DAB0248C349842C3822D53AE2BB4F36352F301630D018C8139 SWAP1 PUSH3 0x262 SWAP1 DUP5 SWAP1 DUP13 SWAP1 PUSH3 0x738 JUMP JUMPDEST PUSH1 0x40 MLOAD DUP1 SWAP2 SUB SWAP1 LOG1 POP SWAP13 SWAP12 POP POP POP POP POP POP POP POP POP POP POP POP JUMP JUMPDEST PUSH1 0x0 DUP1 DUP7 DUP7 DUP7 DUP7 PUSH1 0x40 MLOAD PUSH1 0x20 ADD PUSH3 0x297 SWAP5 SWAP4 SWAP3 SWAP2 SWAP1 PUSH3 0x609 JUMP JUMPDEST PUSH1 0x40 DUP1 MLOAD PUSH1 0x1F NOT DUP2 DUP5 SUB ADD DUP2 MSTORE SWAP1 DUP3 SWAP1 MSTORE DUP1 MLOAD PUSH1 0x20 SWAP2 DUP3 ADD KECCAK256 SWAP3 POP PUSH3 0x2E6 SWAP2 PUSH32 0xFF00000000000000000000000000000000000000000000000000000000000000 SWAP2 ADDRESS SWAP2 DUP6 SWAP2 DUP9 SWAP2 ADD PUSH3 0x7B6 JUMP JUMPDEST PUSH1 0x40 DUP1 MLOAD PUSH1 0x1F NOT DUP2 DUP5 SUB ADD DUP2 MSTORE SWAP2 SWAP1 MSTORE DUP1 MLOAD PUSH1 0x20 SWAP1 SWAP2 ADD KECCAK256 SWAP8 SWAP7 POP POP POP POP POP POP POP JUMP JUMPDEST PUSH2 0x114B DUP1 PUSH3 0x807 DUP4 CODECOPY ADD SWAP1 JUMP JUMPDEST DUP1 JUMPDEST DUP2 EQ PUSH3 0x325 JUMPI PUSH1 0x0 DUP1 REVERT JUMPDEST POP JUMP JUMPDEST DUP1 CALLDATALOAD PUSH3 0x335 DUP2 PUSH3 0x317 JUMP JUMPDEST SWAP3 SWAP2 POP POP JUMP JUMPDEST PUSH1 0x0 PUSH1 0x20 DUP3 DUP5 SUB SLT ISZERO PUSH3 0x352 JUMPI PUSH3 0x352 PUSH1 0x0 DUP1 REVERT JUMPDEST PUSH1 0x0 PUSH3 0x360 DUP5 DUP5 PUSH3 0x328 JUMP JUMPDEST SWAP5 SWAP4 POP POP POP POP JUMP JUMPDEST PUSH1 0x0 PUSH20 0xFFFFFFFFFFFFFFFFFFFFFFFFFFFFFFFFFFFFFFFF DUP3 AND PUSH3 0x335 JUMP JUMPDEST PUSH3 0x392 DUP2 PUSH3 0x368 JUMP JUMPDEST DUP3 MSTORE POP POP JUMP JUMPDEST PUSH1 0x20 DUP2 ADD PUSH3 0x335 DUP3 DUP5 PUSH3 0x387 JUMP JUMPDEST DUP1 PUSH3 0x392 JUMP JUMPDEST PUSH1 0x20 DUP2 ADD PUSH3 0x335 DUP3 DUP5 PUSH3 0x3A8 JUMP JUMPDEST PUSH1 0x0 DUP1 DUP4 PUSH1 0x1F DUP5 ADD SLT PUSH3 0x3D6 JUMPI PUSH3 0x3D6 PUSH1 0x0 DUP1 REVERT JUMPDEST POP DUP2 CALLDATALOAD PUSH8 0xFFFFFFFFFFFFFFFF DUP2 GT ISZERO PUSH3 0x3F3 JUMPI PUSH3 0x3F3 PUSH1 0x0 DUP1 REVERT JUMPDEST PUSH1 0x20 DUP4 ADD SWAP2 POP DUP4 PUSH1 0x1 DUP3 MUL DUP4 ADD GT ISZERO PUSH3 0x410 JUMPI PUSH3 0x410 PUSH1 0x0 DUP1 REVERT JUMPDEST SWAP3 POP SWAP3 SWAP1 POP JUMP JUMPDEST PUSH3 0x319 DUP2 PUSH3 0x368 JUMP JUMPDEST DUP1 CALLDATALOAD PUSH3 0x335 DUP2 PUSH3 0x417 JUMP JUMPDEST PUSH1 0x0 DUP1 PUSH1 0x0 DUP1 PUSH1 0x0 DUP1 PUSH1 0x0 DUP1 PUSH1 0x0 DUP1 PUSH1 0xC0 DUP12 DUP14 SUB SLT ISZERO PUSH3 0x453 JUMPI PUSH3 0x453 PUSH1 0x0 DUP1 REVERT JUMPDEST DUP11 CALLDATALOAD PUSH8 0xFFFFFFFFFFFFFFFF DUP2 GT ISZERO PUSH3 0x46F JUMPI PUSH3 0x46F PUSH1 0x0 DUP1 REVERT JUMPDEST PUSH3 0x47D DUP14 DUP3 DUP15 ADD PUSH3 0x3BF JUMP JUMPDEST SWAP11 POP SWAP11 POP POP PUSH1 0x20 DUP12 ADD CALLDATALOAD PUSH8 0xFFFFFFFFFFFFFFFF DUP2 GT ISZERO PUSH3 0x4A1 JUMPI PUSH3 0x4A1 PUSH1 0x0 DUP1 REVERT JUMPDEST PUSH3 0x4AF DUP14 DUP3 DUP15 ADD PUSH3 0x3BF JUMP JUMPDEST SWAP9 POP SWAP9 POP POP PUSH1 0x40 PUSH3 0x4C4 DUP14 DUP3 DUP15 ADD PUSH3 0x328 JUMP JUMPDEST SWAP7 POP POP PUSH1 0x60 PUSH3 0x4D7 DUP14 DUP3 DUP15 ADD PUSH3 0x422 JUMP JUMPDEST SWAP6 POP POP PUSH1 0x80 DUP12 ADD CALLDATALOAD PUSH8 0xFFFFFFFFFFFFFFFF DUP2 GT ISZERO PUSH3 0x4F9 JUMPI PUSH3 0x4F9 PUSH1 0x0 DUP1 REVERT JUMPDEST PUSH3 0x507 DUP14 DUP3 DUP15 ADD PUSH3 0x3BF JUMP JUMPDEST SWAP5 POP SWAP5 POP POP PUSH1 0xA0 DUP12 ADD CALLDATALOAD PUSH8 0xFFFFFFFFFFFFFFFF DUP2 GT ISZERO PUSH3 0x52B JUMPI PUSH3 0x52B PUSH1 0x0 DUP1 REVERT JUMPDEST PUSH3 0x539 DUP14 DUP3 DUP15 ADD PUSH3 0x3BF JUMP JUMPDEST SWAP3 POP SWAP3 POP POP SWAP3 SWAP6 SWAP9 SWAP12 SWAP2 SWAP5 SWAP8 SWAP11 POP SWAP3 SWAP6 SWAP9 POP JUMP JUMPDEST PUSH1 0x0 DUP1 PUSH1 0x0 DUP1 PUSH1 0x0 PUSH1 0x60 DUP7 DUP9 SUB SLT ISZERO PUSH3 0x56A JUMPI PUSH3 0x56A PUSH1 0x0 DUP1 REVERT JUMPDEST DUP6 CALLDATALOAD PUSH8 0xFFFFFFFFFFFFFFFF DUP2 GT ISZERO PUSH3 0x586 JUMPI PUSH3 0x586 PUSH1 0x0 DUP1 REVERT JUMPDEST PUSH3 0x594 DUP9 DUP3 DUP10 ADD PUSH3 0x3BF JUMP JUMPDEST SWAP6 POP SWAP6 POP POP PUSH1 0x20 DUP7 ADD CALLDATALOAD PUSH8 0xFFFFFFFFFFFFFFFF DUP2 GT ISZERO PUSH3 0x5B8 JUMPI PUSH3 0x5B8 PUSH1 0x0 DUP1 REVERT JUMPDEST PUSH3 0x5C6 DUP9 DUP3 DUP10 ADD PUSH3 0x3BF JUMP JUMPDEST SWAP4 POP SWAP4 POP POP PUSH1 0x40 PUSH3 0x5DB DUP9 DUP3 DUP10 ADD PUSH3 0x328 JUMP JUMPDEST SWAP2 POP POP SWAP3 SWAP6 POP SWAP3 SWAP6 SWAP1 SWAP4 POP JUMP JUMPDEST DUP3 DUP2 DUP4 CALLDATACOPY POP PUSH1 0x0 SWAP2 ADD MSTORE JUMP JUMPDEST PUSH1 0x0 PUSH3 0x603 DUP4 DUP6 DUP5 PUSH3 0x5E8 JUMP JUMPDEST POP POP ADD SWAP1 JUMP JUMPDEST PUSH1 0x0 PUSH3 0x618 DUP3 DUP7 DUP9 PUSH3 0x5F4 JUMP JUMPDEST SWAP2 POP PUSH3 0x627 DUP3 DUP5 DUP7 PUSH3 0x5F4 JUMP JUMPDEST SWAP7 SWAP6 POP POP POP POP POP POP JUMP JUMPDEST DUP2 DUP4 MSTORE PUSH1 0x0 PUSH1 0x20 DUP5 ADD SWAP4 POP PUSH3 0x649 DUP4 DUP6 DUP5 PUSH3 0x5E8 JUMP JUMPDEST POP POP PUSH1 0x1F ADD PUSH1 0x1F NOT AND ADD SWAP1 JUMP JUMPDEST PUSH1 0x80 DUP1 DUP3 MSTORE DUP2 ADD PUSH3 0x66A DUP2 DUP9 DUP11 PUSH3 0x631 JUMP JUMPDEST SWAP1 POP DUP2 DUP2 SUB PUSH1 0x20 DUP4 ADD MSTORE PUSH3 0x681 DUP2 DUP7 DUP9 PUSH3 0x631 JUMP JUMPDEST SWAP1 POP PUSH3 0x692 PUSH1 0x40 DUP4 ADD DUP6 PUSH3 0x3A8 JUMP JUMPDEST PUSH3 0x6A1 PUSH1 0x60 DUP4 ADD DUP5 PUSH3 0x387 JUMP JUMPDEST SWAP8 SWAP7 POP POP POP POP POP POP POP JUMP JUMPDEST PUSH1 0x0 JUMPDEST DUP4 DUP2 LT ISZERO PUSH3 0x6C9 JUMPI DUP2 DUP2 ADD MLOAD DUP4 DUP3 ADD MSTORE PUSH1 0x20 ADD PUSH3 0x6AF JUMP JUMPDEST POP POP PUSH1 0x0 SWAP2 ADD MSTORE JUMP JUMPDEST PUSH1 0x0 PUSH3 0x6DD DUP3 MLOAD SWAP1 JUMP JUMPDEST PUSH3 0x6ED DUP2 DUP6 PUSH1 0x20 DUP7 ADD PUSH3 0x6AC JUMP JUMPDEST SWAP3 SWAP1 SWAP3 ADD SWAP3 SWAP2 POP POP JUMP JUMPDEST PUSH1 0x0 PUSH3 0x705 DUP3 DUP6 PUSH3 0x6D2 JUMP JUMPDEST SWAP2 POP PUSH3 0x360 DUP3 DUP5 PUSH3 0x6D2 JUMP JUMPDEST PUSH1 0x0 PUSH3 0x335 DUP3 PUSH3 0x368 JUMP JUMPDEST PUSH1 0x0 PUSH3 0x335 DUP3 PUSH3 0x713 JUMP JUMPDEST PUSH3 0x392 DUP2 PUSH3 0x720 JUMP JUMPDEST PUSH1 0x40 DUP2 ADD PUSH3 0x748 DUP3 DUP6 PUSH3 0x72D JUMP JUMPDEST PUSH3 0x757 PUSH1 0x20 DUP4 ADD DUP5 PUSH3 0x387 JUMP JUMPDEST SWAP4 SWAP3 POP POP POP JUMP JUMPDEST PUSH32 0xFF00000000000000000000000000000000000000000000000000000000000000 DUP2 AND PUSH3 0x392 JUMP JUMPDEST PUSH1 0x0 PUSH3 0x335 DUP3 PUSH1 0x60 SHL SWAP1 JUMP JUMPDEST PUSH1 0x0 PUSH3 0x335 DUP3 PUSH3 0x787 JUMP JUMPDEST PUSH3 0x392 PUSH3 0x7B0 DUP3 PUSH3 0x368 JUMP JUMPDEST PUSH3 0x794 JUMP JUMPDEST PUSH1 0x0 PUSH3 0x7C4 DUP3 DUP8 PUSH3 0x75E JUMP JUMPDEST PUSH1 0x1 DUP3 ADD SWAP2 POP PUSH3 0x7D6 DUP3 DUP7 PUSH3 0x7A1 JUMP JUMPDEST PUSH1 0x14 DUP3 ADD SWAP2 POP PUSH3 0x7E8 DUP3 DUP6 PUSH3 0x3A8 JUMP JUMPDEST PUSH1 0x20 DUP3 ADD SWAP2 POP PUSH3 0x7FA DUP3 DUP5 PUSH3 0x3A8 JUMP JUMPDEST POP PUSH1 0x20 ADD SWAP5 SWAP4 POP POP POP POP JUMP INVALID PUSH1 0x80 PUSH1 0x40 MSTORE CALLVALUE DUP1 ISZERO PUSH3 0x11 JUMPI PUSH1 0x0 DUP1 REVERT JUMPDEST POP PUSH1 0x40 MLOAD PUSH3 0x114B CODESIZE SUB DUP1 PUSH3 0x114B DUP4 CODECOPY DUP2 ADD PUSH1 0x40 DUP2 SWAP1 MSTORE PUSH3 0x34 SWAP2 PUSH3 0x29C JUMP JUMPDEST DUP4 DUP4 PUSH1 0x3 PUSH3 0x44 DUP4 DUP3 PUSH3 0x435 JUMP JUMPDEST POP PUSH1 0x4 PUSH3 0x53 DUP3 DUP3 PUSH3 0x435 JUMP JUMPDEST POP POP POP PUSH3 0x68 DUP2 DUP4 PUSH3 0x72 PUSH1 0x20 SHL PUSH1 0x20 SHR JUMP JUMPDEST POP POP POP POP PUSH3 0x57A JUMP JUMPDEST PUSH1 0x1 PUSH1 0x1 PUSH1 0xA0 SHL SUB DUP3 AND PUSH3 0xA4 JUMPI PUSH1 0x40 MLOAD PUSH3 0x461BCD PUSH1 0xE5 SHL DUP2 MSTORE PUSH1 0x4 ADD PUSH3 0x9B SWAP1 PUSH3 0x505 JUMP JUMPDEST PUSH1 0x40 MLOAD DUP1 SWAP2 SUB SWAP1 REVERT JUMPDEST DUP1 PUSH1 0x2 PUSH1 0x0 DUP3 DUP3 SLOAD PUSH3 0xB8 SWAP2 SWAP1 PUSH3 0x557 JUMP JUMPDEST SWAP1 SWAP2 SSTORE POP POP PUSH1 0x1 PUSH1 0x1 PUSH1 0xA0 SHL SUB DUP3 AND PUSH1 0x0 DUP2 DUP2 MSTORE PUSH1 0x20 DUP2 SWAP1 MSTORE PUSH1 0x40 DUP1 DUP3 KECCAK256 DUP1 SLOAD DUP6 ADD SWAP1 SSTORE MLOAD PUSH32 0xDDF252AD1BE2C89B69C2B068FC378DAA952BA7F163C4A11628F55A4DF523B3EF SWAP1 PUSH3 0x10C SWAP1 DUP6 SWAP1 PUSH3 0x56D JUMP JUMPDEST PUSH1 0x40 MLOAD DUP1 SWAP2 SUB SWAP1 LOG3 JUMPDEST POP POP JUMP JUMPDEST POP POP POP JUMP JUMPDEST PUSH4 0x4E487B71 PUSH1 0xE0 SHL PUSH1 0x0 MSTORE PUSH1 0x41 PUSH1 0x4 MSTORE PUSH1 0x24 PUSH1 0x0 REVERT JUMPDEST PUSH1 0x1F NOT PUSH1 0x1F DUP4 ADD AND DUP2 ADD DUP2 DUP2 LT PUSH1 0x1 PUSH1 0x1 PUSH1 0x40 SHL SUB DUP3 GT OR ISZERO PUSH3 0x15C JUMPI PUSH3 0x15C PUSH3 0x11E JUMP JUMPDEST PUSH1 0x40 MSTORE POP POP JUMP JUMPDEST PUSH1 0x0 PUSH3 0x16F PUSH1 0x40 MLOAD SWAP1 JUMP JUMPDEST SWAP1 POP PUSH3 0x17D DUP3 DUP3 PUSH3 0x134 JUMP JUMPDEST SWAP2 SWAP1 POP JUMP JUMPDEST PUSH1 0x0 PUSH1 0x1 PUSH1 0x1 PUSH1 0x40 SHL SUB DUP3 GT ISZERO PUSH3 0x19E JUMPI PUSH3 0x19E PUSH3 0x11E JUMP JUMPDEST PUSH1 0x1F NOT PUSH1 0x1F DUP4 ADD AND PUSH1 0x20 ADD SWAP3 SWAP2 POP POP JUMP JUMPDEST PUSH1 0x0 JUMPDEST DUP4 DUP2 LT ISZERO PUSH3 0x1CC JUMPI DUP2 DUP2 ADD MLOAD DUP4 DUP3 ADD MSTORE PUSH1 0x20 ADD PUSH3 0x1B2 JUMP JUMPDEST POP POP PUSH1 0x0 SWAP2 ADD MSTORE JUMP JUMPDEST PUSH1 0x0 PUSH3 0x1EC PUSH3 0x1E6 DUP5 PUSH3 0x182 JUMP JUMPDEST PUSH3 0x163 JUMP JUMPDEST SWAP1 POP DUP3 DUP2 MSTORE PUSH1 0x20 DUP2 ADD DUP5 DUP5 DUP5 ADD GT ISZERO PUSH3 0x209 JUMPI PUSH3 0x209 PUSH1 0x0 DUP1 REVERT JUMPDEST PUSH3 0x216 DUP5 DUP3 DUP6 PUSH3 0x1AF JUMP JUMPDEST POP SWAP4 SWAP3 POP POP POP JUMP JUMPDEST PUSH1 0x0 DUP3 PUSH1 0x1F DUP4 ADD SLT PUSH3 0x234 JUMPI PUSH3 0x234 PUSH1 0x0 DUP1 REVERT JUMPDEST DUP2 MLOAD PUSH3 0x246 DUP5 DUP3 PUSH1 0x20 DUP7 ADD PUSH3 0x1D5 JUMP JUMPDEST SWAP5 SWAP4 POP POP POP POP JUMP JUMPDEST DUP1 JUMPDEST DUP2 EQ PUSH3 0x25C JUMPI PUSH1 0x0 DUP1 REVERT JUMPDEST POP JUMP JUMPDEST DUP1 MLOAD PUSH3 0x26C DUP2 PUSH3 0x24E JUMP JUMPDEST SWAP3 SWAP2 POP POP JUMP JUMPDEST PUSH1 0x0 PUSH1 0x1 PUSH1 0x1 PUSH1 0xA0 SHL SUB DUP3 AND PUSH3 0x26C JUMP JUMPDEST PUSH3 0x250 DUP2 PUSH3 0x272 JUMP JUMPDEST DUP1 MLOAD PUSH3 0x26C DUP2 PUSH3 0x284 JUMP JUMPDEST PUSH1 0x0 DUP1 PUSH1 0x0 DUP1 PUSH1 0x80 DUP6 DUP8 SUB SLT ISZERO PUSH3 0x2B7 JUMPI PUSH3 0x2B7 PUSH1 0x0 DUP1 REVERT JUMPDEST DUP5 MLOAD PUSH1 0x1 PUSH1 0x1 PUSH1 0x40 SHL SUB DUP2 GT ISZERO PUSH3 0x2D2 JUMPI PUSH3 0x2D2 PUSH1 0x0 DUP1 REVERT JUMPDEST PUSH3 0x2E0 DUP8 DUP3 DUP9 ADD PUSH3 0x21E JUMP JUMPDEST SWAP5 POP POP PUSH1 0x20 DUP6 ADD MLOAD PUSH1 0x1 PUSH1 0x1 PUSH1 0x40 SHL SUB DUP2 GT ISZERO PUSH3 0x301 JUMPI PUSH3 0x301 PUSH1 0x0 DUP1 REVERT JUMPDEST PUSH3 0x30F DUP8 DUP3 DUP9 ADD PUSH3 0x21E JUMP JUMPDEST SWAP4 POP POP PUSH1 0x40 PUSH3 0x322 DUP8 DUP3 DUP9 ADD PUSH3 0x25F JUMP JUMPDEST SWAP3 POP POP PUSH1 0x60 PUSH3 0x335 DUP8 DUP3 DUP9 ADD PUSH3 0x28F JUMP JUMPDEST SWAP2 POP POP SWAP3 SWAP6 SWAP2 SWAP5 POP SWAP3 POP JUMP JUMPDEST PUSH4 0x4E487B71 PUSH1 0xE0 SHL PUSH1 0x0 MSTORE PUSH1 0x22 PUSH1 0x4 MSTORE PUSH1 0x24 PUSH1 0x0 REVERT JUMPDEST PUSH1 0x2 DUP2 DIV PUSH1 0x1 DUP3 AND DUP1 PUSH3 0x36C JUMPI PUSH1 0x7F DUP3 AND SWAP2 POP JUMPDEST PUSH1 0x20 DUP3 LT DUP2 SUB PUSH3 0x381 JUMPI PUSH3 0x381 PUSH3 0x341 JUMP JUMPDEST POP SWAP2 SWAP1 POP JUMP JUMPDEST PUSH1 0x0 PUSH3 0x26C PUSH3 0x395 DUP4 DUP2 JUMP JUMPDEST SWAP1 JUMP JUMPDEST PUSH3 0x3A3 DUP4 PUSH3 0x387 JUMP JUMPDEST DUP2 SLOAD PUSH1 0x8 DUP5 MUL DUP3 DUP2 SHL PUSH1 0x0 NOT SWAP1 SWAP2 SHL SWAP1 DUP2 AND SWAP1 NOT SWAP1 SWAP2 AND OR DUP3 SSTORE POP POP POP POP JUMP JUMPDEST PUSH1 0x0 PUSH3 0x119 DUP2 DUP5 DUP5 PUSH3 0x398 JUMP JUMPDEST DUP2 DUP2 LT ISZERO PUSH3 0x115 JUMPI PUSH3 0x3E8 PUSH1 0x0 DUP3 PUSH3 0x3C3 JUMP JUMPDEST PUSH1 0x1 ADD PUSH3 0x3D2 JUMP JUMPDEST PUSH1 0x1F DUP3 GT ISZERO PUSH3 0x119 JUMPI PUSH1 0x0 DUP2 DUP2 MSTORE PUSH1 0x20 SWAP1 KECCAK256 PUSH1 0x20 PUSH1 0x1F DUP6 ADD DIV DUP2 ADD PUSH1 0x20 DUP6 LT ISZERO PUSH3 0x41A JUMPI POP DUP1 JUMPDEST PUSH3 0x42E PUSH1 0x20 PUSH1 0x1F DUP7 ADD DIV DUP4 ADD DUP3 PUSH3 0x3D2 JUMP JUMPDEST POP POP POP POP POP JUMP JUMPDEST DUP2 MLOAD PUSH1 0x1 PUSH1 0x1 PUSH1 0x40 SHL SUB DUP2 GT ISZERO PUSH3 0x451 JUMPI PUSH3 0x451 PUSH3 0x11E JUMP JUMPDEST PUSH3 0x45D DUP3 SLOAD PUSH3 0x357 JUMP JUMPDEST PUSH3 0x46A DUP3 DUP3 DUP6 PUSH3 0x3F1 JUMP JUMPDEST PUSH1 0x20 PUSH1 0x1F DUP4 GT PUSH1 0x1 DUP2 EQ PUSH3 0x4A1 JUMPI PUSH1 0x0 DUP5 ISZERO PUSH3 0x488 JUMPI POP DUP6 DUP3 ADD MLOAD JUMPDEST PUSH1 0x0 NOT PUSH1 0x8 DUP7 MUL SHR NOT DUP2 AND PUSH1 0x2 DUP7 MUL OR DUP7 SSTORE POP PUSH3 0x4FD JUMP JUMPDEST PUSH1 0x0 DUP6 DUP2 MSTORE PUSH1 0x20 DUP2 KECCAK256 PUSH1 0x1F NOT DUP7 AND SWAP2 JUMPDEST DUP3 DUP2 LT ISZERO PUSH3 0x4D3 JUMPI DUP9 DUP6 ADD MLOAD DUP3 SSTORE PUSH1 0x20 SWAP5 DUP6 ADD SWAP5 PUSH1 0x1 SWAP1 SWAP3 ADD SWAP2 ADD PUSH3 0x4B1 JUMP JUMPDEST DUP7 DUP4 LT ISZERO PUSH3 0x4F0 JUMPI DUP5 DUP10 ADD MLOAD PUSH1 0x0 NOT PUSH1 0x1F DUP10 AND PUSH1 0x8 MUL SHR NOT AND DUP3 SSTORE JUMPDEST PUSH1 0x1 PUSH1 0x2 DUP9 MUL ADD DUP9 SSTORE POP POP POP JUMPDEST POP POP POP POP POP POP JUMP JUMPDEST PUSH1 0x20 DUP1 DUP3 MSTORE DUP2 ADD PUSH3 0x26C DUP2 PUSH1 0x1F DUP2 MSTORE PUSH32 0x45524332303A206D696E7420746F20746865207A65726F206164647265737300 PUSH1 0x20 DUP3 ADD MSTORE PUSH1 0x40 ADD SWAP1 JUMP JUMPDEST PUSH4 0x4E487B71 PUSH1 0xE0 SHL PUSH1 0x0 MSTORE PUSH1 0x11 PUSH1 0x4 MSTORE PUSH1 0x24 PUSH1 0x0 REVERT JUMPDEST DUP1 DUP3 ADD DUP1 DUP3 GT ISZERO PUSH3 0x26C JUMPI PUSH3 0x26C PUSH3 0x541 JUMP JUMPDEST DUP2 DUP2 MSTORE PUSH1 0x20 DUP2 ADD PUSH3 0x26C JUMP JUMPDEST PUSH2 0xBC1 DUP1 PUSH3 0x58A PUSH1 0x0 CODECOPY PUSH1 0x0 RETURN INVALID PUSH1 0x80 PUSH1 0x40 MSTORE CALLVALUE DUP1 ISZERO PUSH2 0x10 JUMPI PUSH1 0x0 DUP1 REVERT JUMPDEST POP PUSH1 0x4 CALLDATASIZE LT PUSH2 0xC9 JUMPI PUSH1 0x0 CALLDATALOAD PUSH1 0xE0 SHR DUP1 PUSH4 0x39509351 GT PUSH2 0x81 JUMPI DUP1 PUSH4 0xA457C2D7 GT PUSH2 0x5B JUMPI DUP1 PUSH4 0xA457C2D7 EQ PUSH2 0x190 JUMPI DUP1 PUSH4 0xA9059CBB EQ PUSH2 0x1A3 JUMPI DUP1 PUSH4 0xDD62ED3E EQ PUSH2 0x1B6 JUMPI PUSH1 0x0 DUP1 REVERT JUMPDEST DUP1 PUSH4 0x39509351 EQ PUSH2 0x13F JUMPI DUP1 PUSH4 0x70A08231 EQ PUSH2 0x152 JUMPI DUP1 PUSH4 0x95D89B41 EQ PUSH2 0x188 JUMPI PUSH1 0x0 DUP1 REVERT JUMPDEST DUP1 PUSH4 0x18160DDD GT PUSH2 0xB2 JUMPI DUP1 PUSH4 0x18160DDD EQ PUSH2 0x10C JUMPI DUP1 PUSH4 0x23B872DD EQ PUSH2 0x11D JUMPI DUP1 PUSH4 0x313CE567 EQ PUSH2 0x130 JUMPI PUSH1 0x0 DUP1 REVERT JUMPDEST DUP1 PUSH4 0x6FDDE03 EQ PUSH2 0xCE JUMPI DUP1 PUSH4 0x95EA7B3 EQ PUSH2 0xEC JUMPI JUMPDEST PUSH1 0x0 DUP1 REVERT JUMPDEST PUSH2 0xD6 PUSH2 0x1FC JUMP JUMPDEST PUSH1 0x40 MLOAD PUSH2 0xE3 SWAP2 SWAP1 PUSH2 0x69F JUMP JUMPDEST PUSH1 0x40 MLOAD DUP1 SWAP2 SUB SWAP1 RETURN JUMPDEST PUSH2 0xFF PUSH2 0xFA CALLDATASIZE PUSH1 0x4 PUSH2 0x708 JUMP JUMPDEST PUSH2 0x28E JUMP JUMPDEST PUSH1 0x40 MLOAD PUSH2 0xE3 SWAP2 SWAP1 PUSH2 0x74F JUMP JUMPDEST PUSH1 0x2 SLOAD JUMPDEST PUSH1 0x40 MLOAD PUSH2 0xE3 SWAP2 SWAP1 PUSH2 0x763 JUMP JUMPDEST PUSH2 0xFF PUSH2 0x12B CALLDATASIZE PUSH1 0x4 PUSH2 0x771 JUMP JUMPDEST PUSH2 0x2A8 JUMP JUMPDEST PUSH1 0x12 PUSH1 0x40 MLOAD PUSH2 0xE3 SWAP2 SWAP1 PUSH2 0x7CA JUMP JUMPDEST PUSH2 0xFF PUSH2 0x14D CALLDATASIZE PUSH1 0x4 PUSH2 0x708 JUMP JUMPDEST PUSH2 0x2CC JUMP JUMPDEST PUSH2 0x110 PUSH2 0x160 CALLDATASIZE PUSH1 0x4 PUSH2 0x7D8 JUMP JUMPDEST PUSH20 0xFFFFFFFFFFFFFFFFFFFFFFFFFFFFFFFFFFFFFFFF AND PUSH1 0x0 SWAP1 DUP2 MSTORE PUSH1 0x20 DUP2 SWAP1 MSTORE PUSH1 0x40 SWAP1 KECCAK256 SLOAD SWAP1 JUMP JUMPDEST PUSH2 0xD6 PUSH2 0x318 JUMP JUMPDEST PUSH2 0xFF PUSH2 0x19E CALLDATASIZE PUSH1 0x4 PUSH2 0x708 JUMP JUMPDEST PUSH2 0x327 JUMP JUMPDEST PUSH2 0xFF PUSH2 0x1B1 CALLDATASIZE PUSH1 0x4 PUSH2 0x708 JUMP JUMPDEST PUSH2 0x391 JUMP JUMPDEST PUSH2 0x110 PUSH2 0x1C4 CALLDATASIZE PUSH1 0x4 PUSH2 0x801 JUMP JUMPDEST PUSH20 0xFFFFFFFFFFFFFFFFFFFFFFFFFFFFFFFFFFFFFFFF SWAP2 DUP3 AND PUSH1 0x0 SWAP1 DUP2 MSTORE PUSH1 0x1 PUSH1 0x20 SWAP1 DUP2 MSTORE PUSH1 0x40 DUP1 DUP4 KECCAK256 SWAP4 SWAP1 SWAP5 AND DUP3 MSTORE SWAP2 SWAP1 SWAP2 MSTORE KECCAK256 SLOAD SWAP1 JUMP JUMPDEST PUSH1 0x60 PUSH1 0x3 DUP1 SLOAD PUSH2 0x20B SWAP1 PUSH2 0x863 JUMP JUMPDEST DUP1 PUSH1 0x1F ADD PUSH1 0x20 DUP1 SWAP2 DIV MUL PUSH1 0x20 ADD PUSH1 0x40 MLOAD SWAP1 DUP2 ADD PUSH1 0x40 MSTORE DUP1 SWAP3 SWAP2 SWAP1 DUP2 DUP2 MSTORE PUSH1 0x20 ADD DUP3 DUP1 SLOAD PUSH2 0x237 SWAP1 PUSH2 0x863 JUMP JUMPDEST DUP1 ISZERO PUSH2 0x284 JUMPI DUP1 PUSH1 0x1F LT PUSH2 0x259 JUMPI PUSH2 0x100 DUP1 DUP4 SLOAD DIV MUL DUP4 MSTORE SWAP2 PUSH1 0x20 ADD SWAP2 PUSH2 0x284 JUMP JUMPDEST DUP3 ADD SWAP2 SWAP1 PUSH1 0x0 MSTORE PUSH1 0x20 PUSH1 0x0 KECCAK256 SWAP1 JUMPDEST DUP2 SLOAD DUP2 MSTORE SWAP1 PUSH1 0x1 ADD SWAP1 PUSH1 0x20 ADD DUP1 DUP4 GT PUSH2 0x267 JUMPI DUP3 SWAP1 SUB PUSH1 0x1F AND DUP3 ADD SWAP2 JUMPDEST POP POP POP POP POP SWAP1 POP SWAP1 JUMP JUMPDEST PUSH1 0x0 CALLER PUSH2 0x29C DUP2 DUP6 DUP6 PUSH2 0x39F JUMP JUMPDEST PUSH1 0x1 SWAP2 POP POP JUMPDEST SWAP3 SWAP2 POP POP JUMP JUMPDEST PUSH1 0x0 CALLER PUSH2 0x2B6 DUP6 DUP3 DUP6 PUSH2 0x47A JUMP JUMPDEST PUSH2 0x2C1 DUP6 DUP6 DUP6 PUSH2 0x507 JUMP JUMPDEST POP PUSH1 0x1 SWAP5 SWAP4 POP POP POP POP JUMP JUMPDEST CALLER PUSH1 0x0 DUP2 DUP2 MSTORE PUSH1 0x1 PUSH1 0x20 SWAP1 DUP2 MSTORE PUSH1 0x40 DUP1 DUP4 KECCAK256 PUSH20 0xFFFFFFFFFFFFFFFFFFFFFFFFFFFFFFFFFFFFFFFF DUP8 AND DUP5 MSTORE SWAP1 SWAP2 MSTORE DUP2 KECCAK256 SLOAD SWAP1 SWAP2 SWAP1 PUSH2 0x29C SWAP1 DUP3 SWAP1 DUP7 SWAP1 PUSH2 0x313 SWAP1 DUP8 SWAP1 PUSH2 0x8BE JUMP JUMPDEST PUSH2 0x39F JUMP JUMPDEST PUSH1 0x60 PUSH1 0x4 DUP1 SLOAD PUSH2 0x20B SWAP1 PUSH2 0x863 JUMP JUMPDEST CALLER PUSH1 0x0 DUP2 DUP2 MSTORE PUSH1 0x1 PUSH1 0x20 SWAP1 DUP2 MSTORE PUSH1 0x40 DUP1 DUP4 KECCAK256 PUSH20 0xFFFFFFFFFFFFFFFFFFFFFFFFFFFFFFFFFFFFFFFF DUP8 AND DUP5 MSTORE SWAP1 SWAP2 MSTORE DUP2 KECCAK256 SLOAD SWAP1 SWAP2 SWAP1 DUP4 DUP2 LT ISZERO PUSH2 0x384 JUMPI PUSH1 0x40 MLOAD PUSH3 0x461BCD PUSH1 0xE5 SHL DUP2 MSTORE PUSH1 0x4 ADD PUSH2 0x37B SWAP1 PUSH2 0x92E JUMP JUMPDEST PUSH1 0x40 MLOAD DUP1 SWAP2 SUB SWAP1 REVERT JUMPDEST PUSH2 0x2C1 DUP3 DUP7 DUP7 DUP5 SUB PUSH2 0x39F JUMP JUMPDEST PUSH1 0x0 CALLER PUSH2 0x29C DUP2 DUP6 DUP6 PUSH2 0x507 JUMP JUMPDEST PUSH20 0xFFFFFFFFFFFFFFFFFFFFFFFFFFFFFFFFFFFFFFFF DUP4 AND PUSH2 0x3D2 JUMPI PUSH1 0x40 MLOAD PUSH3 0x461BCD PUSH1 0xE5 SHL DUP2 MSTORE PUSH1 0x4 ADD PUSH2 0x37B SWAP1 PUSH2 0x998 JUMP JUMPDEST PUSH20 0xFFFFFFFFFFFFFFFFFFFFFFFFFFFFFFFFFFFFFFFF DUP3 AND PUSH2 0x405 JUMPI PUSH1 0x40 MLOAD PUSH3 0x461BCD PUSH1 0xE5 SHL DUP2 MSTORE PUSH1 0x4 ADD PUSH2 0x37B SWAP1 PUSH2 0xA02 JUMP JUMPDEST PUSH20 0xFFFFFFFFFFFFFFFFFFFFFFFFFFFFFFFFFFFFFFFF DUP1 DUP5 AND PUSH1 0x0 DUP2 DUP2 MSTORE PUSH1 0x1 PUSH1 0x20 SWAP1 DUP2 MSTORE PUSH1 0x40 DUP1 DUP4 KECCAK256 SWAP5 DUP8 AND DUP1 DUP5 MSTORE SWAP5 SWAP1 SWAP2 MSTORE SWAP1 DUP2 SWAP1 KECCAK256 DUP5 SWAP1 SSTORE MLOAD PUSH32 0x8C5BE1E5EBEC7D5BD14F71427D1E84F3DD0314C0F7B2291E5B200AC8C7C3B925 SWAP1 PUSH2 0x46D SWAP1 DUP6 SWAP1 PUSH2 0x763 JUMP JUMPDEST PUSH1 0x40 MLOAD DUP1 SWAP2 SUB SWAP1 LOG3 POP POP POP JUMP JUMPDEST PUSH20 0xFFFFFFFFFFFFFFFFFFFFFFFFFFFFFFFFFFFFFFFF DUP4 DUP2 AND PUSH1 0x0 SWAP1 DUP2 MSTORE PUSH1 0x1 PUSH1 0x20 SWAP1 DUP2 MSTORE PUSH1 0x40 DUP1 DUP4 KECCAK256 SWAP4 DUP7 AND DUP4 MSTORE SWAP3 SWAP1 MSTORE KECCAK256 SLOAD PUSH32 0xFFFFFFFFFFFFFFFFFFFFFFFFFFFFFFFFFFFFFFFFFFFFFFFFFFFFFFFFFFFFFFFF DUP2 EQ PUSH2 0x501 JUMPI DUP2 DUP2 LT ISZERO PUSH2 0x4F4 JUMPI PUSH1 0x40 MLOAD PUSH3 0x461BCD PUSH1 0xE5 SHL DUP2 MSTORE PUSH1 0x4 ADD PUSH2 0x37B SWAP1 PUSH2 0xA12 JUMP JUMPDEST PUSH2 0x501 DUP5 DUP5 DUP5 DUP5 SUB PUSH2 0x39F JUMP JUMPDEST POP POP POP POP JUMP JUMPDEST PUSH20 0xFFFFFFFFFFFFFFFFFFFFFFFFFFFFFFFFFFFFFFFF DUP4 AND PUSH2 0x53A JUMPI PUSH1 0x40 MLOAD PUSH3 0x461BCD PUSH1 0xE5 SHL DUP2 MSTORE PUSH1 0x4 ADD PUSH2 0x37B SWAP1 PUSH2 0xAA7 JUMP JUMPDEST PUSH20 0xFFFFFFFFFFFFFFFFFFFFFFFFFFFFFFFFFFFFFFFF DUP3 AND PUSH2 0x56D JUMPI PUSH1 0x40 MLOAD PUSH3 0x461BCD PUSH1 0xE5 SHL DUP2 MSTORE PUSH1 0x4 ADD PUSH2 0x37B SWAP1 PUSH2 0xB11 JUMP JUMPDEST PUSH20 0xFFFFFFFFFFFFFFFFFFFFFFFFFFFFFFFFFFFFFFFF DUP4 AND PUSH1 0x0 SWAP1 DUP2 MSTORE PUSH1 0x20 DUP2 SWAP1 MSTORE PUSH1 0x40 SWAP1 KECCAK256 SLOAD DUP2 DUP2 LT ISZERO PUSH2 0x5B3 JUMPI PUSH1 0x40 MLOAD PUSH3 0x461BCD PUSH1 0xE5 SHL DUP2 MSTORE PUSH1 0x4 ADD PUSH2 0x37B SWAP1 PUSH2 0xB7B JUMP JUMPDEST PUSH20 0xFFFFFFFFFFFFFFFFFFFFFFFFFFFFFFFFFFFFFFFF DUP1 DUP6 AND PUSH1 0x0 DUP2 DUP2 MSTORE PUSH1 0x20 DUP2 SWAP1 MSTORE PUSH1 0x40 DUP1 DUP3 KECCAK256 DUP7 DUP7 SUB SWAP1 SSTORE SWAP3 DUP7 AND DUP1 DUP3 MSTORE SWAP1 DUP4 SWAP1 KECCAK256 DUP1 SLOAD DUP7 ADD SWAP1 SSTORE SWAP2 MLOAD PUSH32 0xDDF252AD1BE2C89B69C2B068FC378DAA952BA7F163C4A11628F55A4DF523B3EF SWAP1 PUSH2 0x61E SWAP1 DUP7 SWAP1 PUSH2 0x763 JUMP JUMPDEST PUSH1 0x40 MLOAD DUP1 SWAP2 SUB SWAP1 LOG3 PUSH2 0x501 JUMP JUMPDEST PUSH1 0x0 JUMPDEST DUP4 DUP2 LT ISZERO PUSH2 0x646 JUMPI DUP2 DUP2 ADD MLOAD DUP4 DUP3 ADD MSTORE PUSH1 0x20 ADD PUSH2 0x62E JUMP JUMPDEST POP POP PUSH1 0x0 SWAP2 ADD MSTORE JUMP JUMPDEST PUSH1 0x0 PUSH2 0x659 DUP3 MLOAD SWAP1 JUMP JUMPDEST DUP1 DUP5 MSTORE PUSH1 0x20 DUP5 ADD SWAP4 POP PUSH2 0x670 DUP2 DUP6 PUSH1 0x20 DUP7 ADD PUSH2 0x62B JUMP JUMPDEST PUSH1 0x1F ADD PUSH32 0xFFFFFFFFFFFFFFFFFFFFFFFFFFFFFFFFFFFFFFFFFFFFFFFFFFFFFFFFFFFFFFE0 AND SWAP3 SWAP1 SWAP3 ADD SWAP3 SWAP2 POP POP JUMP JUMPDEST PUSH1 0x20 DUP1 DUP3 MSTORE DUP2 ADD PUSH2 0x6B0 DUP2 DUP5 PUSH2 0x64F JUMP JUMPDEST SWAP4 SWAP3 POP POP POP JUMP JUMPDEST PUSH1 0x0 PUSH20 0xFFFFFFFFFFFFFFFFFFFFFFFFFFFFFFFFFFFFFFFF DUP3 AND PUSH2 0x2A2 JUMP JUMPDEST PUSH2 0x6DE DUP2 PUSH2 0x6B7 JUMP JUMPDEST DUP2 EQ PUSH2 0x6E9 JUMPI PUSH1 0x0 DUP1 REVERT JUMPDEST POP JUMP JUMPDEST DUP1 CALLDATALOAD PUSH2 0x2A2 DUP2 PUSH2 0x6D5 JUMP JUMPDEST DUP1 PUSH2 0x6DE JUMP JUMPDEST DUP1 CALLDATALOAD PUSH2 0x2A2 DUP2 PUSH2 0x6F7 JUMP JUMPDEST PUSH1 0x0 DUP1 PUSH1 0x40 DUP4 DUP6 SUB SLT ISZERO PUSH2 0x71E JUMPI PUSH2 0x71E PUSH1 0x0 DUP1 REVERT JUMPDEST PUSH1 0x0 PUSH2 0x72A DUP6 DUP6 PUSH2 0x6EC JUMP JUMPDEST SWAP3 POP POP PUSH1 0x20 PUSH2 0x73B DUP6 DUP3 DUP7 ADD PUSH2 0x6FD JUMP JUMPDEST SWAP2 POP POP SWAP3 POP SWAP3 SWAP1 POP JUMP JUMPDEST DUP1 ISZERO ISZERO JUMPDEST DUP3 MSTORE POP POP JUMP JUMPDEST PUSH1 0x20 DUP2 ADD PUSH2 0x2A2 DUP3 DUP5 PUSH2 0x745 JUMP JUMPDEST DUP1 PUSH2 0x749 JUMP JUMPDEST PUSH1 0x20 DUP2 ADD PUSH2 0x2A2 DUP3 DUP5 PUSH2 0x75D JUMP JUMPDEST PUSH1 0x0 DUP1 PUSH1 0x0 PUSH1 0x60 DUP5 DUP7 SUB SLT ISZERO PUSH2 0x789 JUMPI PUSH2 0x789 PUSH1 0x0 DUP1 REVERT JUMPDEST PUSH1 0x0 PUSH2 0x795 DUP7 DUP7 PUSH2 0x6EC JUMP JUMPDEST SWAP4 POP POP PUSH1 0x20 PUSH2 0x7A6 DUP7 DUP3 DUP8 ADD PUSH2 0x6EC JUMP JUMPDEST SWAP3 POP POP PUSH1 0x40 PUSH2 0x7B7 DUP7 DUP3 DUP8 ADD PUSH2 0x6FD JUMP JUMPDEST SWAP2 POP POP SWAP3 POP SWAP3 POP SWAP3 JUMP JUMPDEST PUSH1 0xFF DUP2 AND PUSH2 0x749 JUMP JUMPDEST PUSH1 0x20 DUP2 ADD PUSH2 0x2A2 DUP3 DUP5 PUSH2 0x7C1 JUMP JUMPDEST PUSH1 0x0 PUSH1 0x20 DUP3 DUP5 SUB SLT ISZERO PUSH2 0x7ED JUMPI PUSH2 0x7ED PUSH1 0x0 DUP1 REVERT JUMPDEST PUSH1 0x0 PUSH2 0x7F9 DUP5 DUP5 PUSH2 0x6EC JUMP JUMPDEST SWAP5 SWAP4 POP POP POP POP JUMP JUMPDEST PUSH1 0x0 DUP1 PUSH1 0x40 DUP4 DUP6 SUB SLT ISZERO PUSH2 0x817 JUMPI PUSH2 0x817 PUSH1 0x0 DUP1 REVERT JUMPDEST PUSH1 0x0 PUSH2 0x823 DUP6 DUP6 PUSH2 0x6EC JUMP JUMPDEST SWAP3 POP POP PUSH1 0x20 PUSH2 0x73B DUP6 DUP3 DUP7 ADD PUSH2 0x6EC JUMP JUMPDEST PUSH32 0x4E487B7100000000000000000000000000000000000000000000000000000000 PUSH1 0x0 MSTORE PUSH1 0x22 PUSH1 0x4 MSTORE PUSH1 0x24 PUSH1 0x0 REVERT JUMPDEST PUSH1 0x2 DUP2 DIV PUSH1 0x1 DUP3 AND DUP1 PUSH2 0x877 JUMPI PUSH1 0x7F DUP3 AND SWAP2 POP JUMPDEST PUSH1 0x20 DUP3 LT DUP2 SUB PUSH2 0x889 JUMPI PUSH2 0x889 PUSH2 0x834 JUMP JUMPDEST POP SWAP2 SWAP1 POP JUMP JUMPDEST PUSH32 0x4E487B7100000000000000000000000000000000000000000000000000000000 PUSH1 0x0 MSTORE PUSH1 0x11 PUSH1 0x4 MSTORE PUSH1 0x24 PUSH1 0x0 REVERT JUMPDEST DUP1 DUP3 ADD DUP1 DUP3 GT ISZERO PUSH2 0x2A2 JUMPI PUSH2 0x2A2 PUSH2 0x88F JUMP JUMPDEST PUSH1 0x25 DUP2 MSTORE PUSH1 0x0 PUSH1 0x20 DUP3 ADD PUSH32 0x45524332303A2064656372656173656420616C6C6F77616E63652062656C6F77 DUP2 MSTORE PUSH32 0x207A65726F000000000000000000000000000000000000000000000000000000 PUSH1 0x20 DUP3 ADD MSTORE SWAP2 POP JUMPDEST POP PUSH1 0x40 ADD SWAP1 JUMP JUMPDEST PUSH1 0x20 DUP1 DUP3 MSTORE DUP2 ADD PUSH2 0x2A2 DUP2 PUSH2 0x8D1 JUMP JUMPDEST PUSH1 0x24 DUP2 MSTORE PUSH1 0x0 PUSH1 0x20 DUP3 ADD PUSH32 0x45524332303A20617070726F76652066726F6D20746865207A65726F20616464 DUP2 MSTORE PUSH32 0x7265737300000000000000000000000000000000000000000000000000000000 PUSH1 0x20 DUP3 ADD MSTORE SWAP2 POP PUSH2 0x927 JUMP JUMPDEST PUSH1 0x20 DUP1 DUP3 MSTORE DUP2 ADD PUSH2 0x2A2 DUP2 PUSH2 0x93E JUMP JUMPDEST PUSH1 0x22 DUP2 MSTORE PUSH1 0x0 PUSH1 0x20 DUP3 ADD PUSH32 0x45524332303A20617070726F766520746F20746865207A65726F206164647265 DUP2 MSTORE PUSH32 0x7373000000000000000000000000000000000000000000000000000000000000 PUSH1 0x20 DUP3 ADD MSTORE SWAP2 POP PUSH2 0x927 JUMP JUMPDEST PUSH1 0x20 DUP1 DUP3 MSTORE DUP2 ADD PUSH2 0x2A2 DUP2 PUSH2 0x9A8 JUMP JUMPDEST PUSH1 0x20 DUP1 DUP3 MSTORE DUP2 ADD PUSH2 0x2A2 DUP2 PUSH1 0x1D DUP2 MSTORE PUSH32 0x45524332303A20696E73756666696369656E7420616C6C6F77616E6365000000 PUSH1 0x20 DUP3 ADD MSTORE PUSH1 0x40 ADD SWAP1 JUMP JUMPDEST PUSH1 0x25 DUP2 MSTORE PUSH1 0x0 PUSH1 0x20 DUP3 ADD PUSH32 0x45524332303A207472616E736665722066726F6D20746865207A65726F206164 DUP2 MSTORE PUSH32 0x6472657373000000000000000000000000000000000000000000000000000000 PUSH1 0x20 DUP3 ADD MSTORE SWAP2 POP PUSH2 0x927 JUMP JUMPDEST PUSH1 0x20 DUP1 DUP3 MSTORE DUP2 ADD PUSH2 0x2A2 DUP2 PUSH2 0xA4D JUMP JUMPDEST PUSH1 0x23 DUP2 MSTORE PUSH1 0x0 PUSH1 0x20 DUP3 ADD PUSH32 0x45524332303A207472616E7366657220746F20746865207A65726F2061646472 DUP2 MSTORE PUSH32 0x6573730000000000000000000000000000000000000000000000000000000000 PUSH1 0x20 DUP3 ADD MSTORE SWAP2 POP PUSH2 0x927 JUMP JUMPDEST PUSH1 0x20 DUP1 DUP3 MSTORE DUP2 ADD PUSH2 0x2A2 DUP2 PUSH2 0xAB7 JUMP JUMPDEST PUSH1 0x26 DUP2 MSTORE PUSH1 0x0 PUSH1 0x20 DUP3 ADD PUSH32 0x45524332303A207472616E7366657220616D6F756E7420657863656564732062 DUP2 MSTORE PUSH32 0x616C616E63650000000000000000000000000000000000000000000000000000 PUSH1 0x20 DUP3 ADD MSTORE SWAP2 POP PUSH2 0x927 JUMP JUMPDEST PUSH1 0x20 DUP1 DUP3 MSTORE DUP2 ADD PUSH2 0x2A2 DUP2 PUSH2 0xB21 JUMP INVALID LOG2 PUSH5 0x6970667358 0x22 SLT KECCAK256 0x4A 0xDD EXTCODECOPY RETURN 0x22 SDIV PUSH27 0x4FD53390BFA75700E4AD72948978AD5649ADD50CC71EC0C756473 PUSH16 0x6C63430008110033A264697066735822 SLT KECCAK256 SWAP13 0x4D 0xC5 ADDRESS BYTE SWAP11 SWAP13 COINBASE SIGNEXTEND CREATE 0x23 0x2E PUSH1 0xDA NOT 0xE PC ISZERO 0xC3 POP SWAP3 GASLIMIT 0xC 0xC2 SWAP2 ADD 0xB7 SUB MULMOD SMOD 0x5E DUP8 PUSH5 0x736F6C6343 STOP ADDMOD GT STOP CALLER "},"methodIdentifiers":{"computeAddress(string,string,bytes32)":"a27086ef","createToken(string,string,uint256,address,string,string)":"9421ff51","getTokenCount()":"78a89567","tokens(uint256)":"4f64b2be"}}}}}